:0400000007EF00F016
:0A000800558208ED04F071EF07F0D7
:0F08000000526F626F74207A6F77690D0A0000E3
:100810000600E70ED76E960ED66EF2A412EF04F025
:1008200014EF04F08AEF04F0282A2804D8A41BEF60
:1008300004F01DEF04F02EEF04F00A04D8A423EF17
:1008400004F025EF04F02EEF04F08A8831C03AF06E
:100850003950E3EC05F08A9889EF04F0020E28186D
:10086000D8A435EF04F037EF04F048EF04F00B04A0
:10087000D8A43DEF04F03FEF04F048EF04F08A8A7B
:1008800030C03AF03850E3EC05F08A9A89EF04F072
:10089000030E2818D8A44FEF04F051EF04F062EFD4
:1008A00004F00C04D8A457EF04F059EF04F062EF01
:1008B00004F08A8C2FC03AF03750E3EC05F08A9CA4
:1008C00089EF04F0040E2818D8A469EF04F06BEF48
:1008D00004F07CEF04F00D04D8A471EF04F073EF82
:1008E00004F07CEF04F08A8E2EC03AF03650E3EC30
:1008F00005F08A9E89EF04F0080E2818D8A483EF2B
:1009000004F085EF04F089EF04F0000E286E89EF03
:1009100004F0F294559211002D0E3E6E2D0E3F6E96
:100920001E0E406E000E426E640E416E1E0EC9EC2D
:1009300006F0060E466E130E456EAE0EE82EFED77E
:10094000452EFCD7462EFAD72D0E3E6E2D0E3F6E4D
:10095000250E406E000E426E640E416E250EC9ECEF
:1009600006F0060E466E130E456EAE0EE82EFED74E
:10097000452EFCD7462EFAD71E0E3E6E1E0E3F6E3B
:100980002C0E406E000E426E640E416E2C0EC9ECB1
:1009900006F0060E466E130E456EAE0EE82EFED71E
:1009A000452EFCD7462EFAD71E0E3E6E1E0E3F6E0B
:1009B000250E406E000E426E640E416E250EC9EC8F
:1009C00006F0060E466E130E456EAE0EE82EFED7EE
:1009D000452EFCD7462EFAD71200426E848042C0C4
:1009E0002AF0425037EC07F042C03FF00F0E3F169E
:1009F0003F50136E146A42C03FF0F00E3F163F5056
:100A0000116E126A13C03FF014C040F03F3A403AF2
:100A1000F00E40163F500F0B4012F00E3F163FC035
:100A200013F040C014F011C03FF012C040F0040EAB
:100A3000416E403440323F32412E19EF05F03FC045
:100A400011F040C012F013501118296E295037ECE4
:100A500007F084A02EEF05F030EF05F036EF05F03B
:100A6000C80E00D0E82EFDD73EEF05F0210E3F6EF8
:100A7000760EE82EFED73F2EFCD700D01200000ED7
:100A8000466E000E476E000E486E000E496E4250D4
:100A9000431044104510D8B450EF05F052EF05F064
:100AA00088EF05F0010E4A6E5CEF05F0D8904236F3
:100AB0004336443645364A2A45AE61EF05F063EFCA
:100AC00005F056EF05F0D890463647364836493699
:100AD00042503E5C43503F58445040584550415866
:100AE000D8A075EF05F077EF05F080EF05F04250E4
:100AF0003E5E43503F5A4450405A4550415A46800A
:100B0000D89045324432433242324A2E63EF05F0E8
:100B100046C03EF047C03FF048C040F049C041F0F9
:100B20001200426E849042C02AF0425037EC07F027
:100B300042C03FF00F0E3F163F50176E186A42C07A
:100B40003FF0F00E3F163F50156E166A17C03FF08B
:100B500018C040F03F3A403AF00E40163F500F0B9D
:100B60004012F00E3F163FC017F040C018F015C0FD
:100B70003FF016C040F0040E416E403440323F3228
:100B8000412EBDEF05F03FC015F040C016F01750E4
:100B90001518296E295037EC07F084A0D2EF05F024
:100BA000D4EF05F0DAEF05F0C80E00D0E82EFDD73F
:100BB000E2EF05F0210E3F6E760EE82EFED73F2EB7
:100BC000FCD700D012003D6E3A503D5CD8A0EBEF50
:100BD00005F0EDEF05F004EF06F03A503D5C3D6E98
:100BE0004DEC07F0000E3B6EF9EF05F05FEC07F0FF
:100BF0003B2A3B503D5CD8B000EF06F002EF06F018
:100C0000F6EF05F022EF06F03A503D5CD8B00BEF5E
:100C100006F00DEF06F022EF06F03D503A5C3D6E17
:100C20004DEC07F0000E3C6E19EF06F05FEC07F09C
:100C30003C063C503D5CD8A020EF06F022EF06F0C9
:100C400016EF06F012000F0EC16E969096949692D3
:100C5000849284948490820E436EDE0EE82EFED73A
:100C6000432EFCD7300E37EC07F0210E436E760E84
:100C7000E82EFED7432EFCD700D0300E37EC07F01D
:100C8000C80E00D0E82EFDD7300E37EC07F0C80EA6
:100C900000D0E82EFDD7200E37EC07F0C80E00D0AC
:100CA000E82EFDD7AEEC07F0AAEC07F0A2EC07F0B7
:100CB000A6EC07F0120023EC06F0800E4B6E250E1A
:100CC0004C6E000E4D6E000E4E6E92EC06F00F0E46
:100CD000C112F19E0F0E936EF00E8A6E000ED56E4D
:100CE000F28EF28AD58EFDEC06F0000E286E99EC9D
:100CF00007F080EC07F0010E3F6E080E406E1CEC12
:100D000007F081B086EF06F088EF06F08CEF06F072
:100D10008CEC04F081EF06F099EC07F081EF06F01F
:100D200007EF00F0949C948E240EAC6E900EAB6E88
:100D3000000EB86EB886000E3E6E2D0E3F6E310E60
:100D4000406E010E416E4BC04FF04CC050F04DC094
:100D500051F04EC052F0020ED8904F3650365136F8
:100D60005236E82EACEF06F04FC042F050C043F0D0
:100D700051C044F052C045F03FEC05F0FF0E3E2458
:100D8000536EFF0E3F20546E53C0AFFF5450B06EF1
:100D90001200446E010E0A6E010E0B6E010E0C6EF7
:100DA000010E0D6E44C039F03EC038F03FC037F040
:100DB00040C036F0E7EF06F04106D8A04206070E25
:100DC000436E6C0EE82EFED7432EFCD700D042BEF9
:100DD000F4EF06F0425006E14104D8B0F2EF06F01D
:100DE000F4EF06F0DCEF06F0000E0A6E000E0B6E5C
:100DF000000E0C6E000E0D6E1200520EEDEC04F0A3
:100E00006F0EEDEC04F0620EEDEC04F06F0EEDEC05
:100E100004F0740EEDEC04F0200EEDEC04F05A0E2C
:100E2000EDEC04F06F0EEDEC04F0770EEDEC04F059
:100E3000690EEDEC04F0120028EF07F03FC0F6FF5A
:100E400040C0F7FF0800F5508EEC07F03F4A402AFB
:100E50003FC0F6FF40C0F7FF0800F5500009D8A4D6
:100E600034EF07F036EF07F01EEF07F012003E6E8A
:100E70003E50F00B2D6E83500F0B2C6E2C502D1806
:100E80002D6E95CF2BF095500F0B956E2DC083FFD7
:100E9000848484942BC095FF1200C80ECD6EF60E8C
:100EA000CF6E3C0ECE6ECD809E909EA05AEF07F086
:100EB0005CEF07F055EF07F09E90CD901200C80E42
:100EC000CD6EFF0ECF6E960ECE6ECD809E909EA004
:100ED0006CEF07F06EEF07F067EF07F09E90CD9094
:100EE000120000EE01F0390EEE6AE806FDE15590C1
:100EF0005592000EF86E080EF76E00015BEF06F0DB
:100F0000240E3E6E240E3F6E240E406E010E426E85
:100F1000F40E416E240EC9EC06F012003E6EACA237
:100F200094EF07F096EF07F08FEF07F03EC0ADFFAC
:100F30001200000E316E000E306E000E2F6E000E8D
:100F40002E6E12000C0E91EC05F01200060E91ECC4
:100F500005F01200010E91EC05F01200280E91EC44
:040F600005F0120086
:020000040020DA
:08000000FFFFFFFFFFFFFFFF00
:020000040030CA
:0E000000210C191EFF8080FF0FC00FE00F4083
:00000001FF
