:0400000007EF00F016
:100008003D8209ED00F0F8EF01F00600E70ED76E2B
:10001800960ED66EF2A413EF00F015EF00F08BEFFA
:1000280000F02A2A2A04D8A41CEF00F01EEF00F0E2
:100038002FEF00F00A04D8A424EF00F026EF00F018
:100048002FEF00F08A881FC032F03C50DEEC00F041
:100058008A988AEF00F0020E2A18D8A436EF00F02A
:1000680038EF00F049EF00F00B04D8A43EEF00F0A1
:1000780040EF00F049EF00F08A8A1DC032F031509D
:10008800DEEC00F08A9A8AEF00F0030E2A18D8A452
:1000980050EF00F052EF00F063EF00F00C04D8A42A
:1000A80058EF00F05AEF00F063EF00F08A8C1BC0A5
:1000B80032F03050DEEC00F08A9C8AEF00F0040E3B
:1000C8002A18D8A46AEF00F06CEF00F07DEF00F07A
:1000D8000D04D8A472EF00F074EF00F07DEF00F08B
:1000E8008A8E19C032F02F50DEEC00F08A9E8AEF1B
:1000F80000F0080E2A18D8A484EF00F086EF00F06C
:100108008AEF00F0000E2A6E8AEF00F0F2943D921A
:100118001100F19E0F0E936EF00E8A6E000ED56ED2
:10012800F28EF28AD58E000E2A6EE7EC01F0A6EC6C
:1001380001F081B0A2EF00F0A4EF00F09DEF00F015
:10014800010E376EF40E366E280E62EC01F00B0EBF
:100158003B6E260E3A6E5E0EE82EFED73A2EFCD780
:100168003B2EFAD7030E376EE80E366E2D0E62EC74
:1001780001F00B0E3B6E260E3A6E5E0EE82EFED791
:100188003A2EFCD73B2EFAD7030E376EE80E366EA2
:10019800320E62EC01F00B0E3B6E260E3A6E5E0ECE
:1001A800E82EFED73A2EFCD73B2EFAD79DEF00F06B
:1001B80007EF00F0356E3250355CD8A0E6EF00F05E
:1001C800E8EF00F0FFEF00F03250355C356EC3EC1D
:1001D80001F0000E336EF4EF00F0D5EC01F0332A95
:1001E8003350355CD8B0FBEF00F0FDEF00F0F1EFD5
:1001F80000F01DEF01F03250355CD8B006EF01F089
:1002080008EF01F01DEF01F03550325C356EC3EC9C
:1002180001F0000E346E14EF01F0D5EC01F0340655
:100228003450355CD8A01BEF01F01DEF01F011EF41
:1002380001F01200396E010E0D6E39C02FF030EF4B
:1002480001F03606D8A03706070E386E6C0EE82E79
:10025800FED7382EFCD700D037BE3DEF01F037501F
:1002680006E13604D8B03BEF01F03DEF01F025EF91
:1002780001F0000E0D6E1200396E010E0C6E39C0C1
:1002880030F052EF01F03606D8A03706070E386E68
:100298006C0EE82EFED7382EFCD700D037BE5FEFA5
:1002A80001F0375006E13604D8B05DEF01F05FEF9A
:1002B80001F047EF01F0000E0C6E1200396E010ECE
:1002C8000B6E39C031F074EF01F03606D8A037064E
:1002D800070E386E6C0EE82EFED7382EFCD700D0ED
:1002E80037BE81EF01F0375006E13604D8B07FEF12
:1002F80001F081EF01F069EF01F0000E0B6E1200C2
:10030800396E010E0A6E39C03CF096EF01F03606E0
:10031800D8A03706070E386E6C0EE82EFED7382E9A
:10032800FCD700D037BEA3EF01F0375006E1360402
:10033800D8B0A1EF01F0A3EF01F08BEF01F0000EB0
:100348000A6E1200010E376EF40E366E240E84EC1F
:1003580001F0010E376EF40E366E240E62EC01F0D9
:10036800010E376EF40E366E000E40EC01F0010EF1
:10037800376EF40E366E000E1EEC01F01200C80E39
:10038800CD6EF60ECF6E3C0ECE6ECD809E909EA0AA
:10039800D0EF01F0D2EF01F0CBEF01F09E90CD90BD
:1003A8001200C80ECD6EFF0ECF6E960ECE6ECD80AB
:1003B8009E909EA0E2EF01F0E4EF01F0DDEF01F086
:1003C8009E90CD901200000E206E000E1F6E000E43
:1003D8001E6E000E1D6E000E1C6E000E1B6E000EB3
:1003E8001A6E000E196E120000EE01F0310EEE6A60
:0E03F800E806FDE13D903D9200018DEF00F022
:020000040020DA
:08000000FFFFFFFFFFFFFFFF00
:020000040030CA
:0E000000210C191EFF8080FF0FC00FE00F4083
:00000001FF
